S0160000556E6974375F53656374696F6E312E73726563D2
S11300000C942A000C9434000C9434000C943400A6
S11300100C9434000C9434000C9434000C9434008C
S11300200C9434000C9434000C9434000C9434007C
S11300300C9434000C9434000C9434000C9434006C
S11300400C9434000C9434000C9434000C9434005C
S11300500C94340011241FBECFE5D8E0DEBFCDBF21
S11300600E9436000C94DC000C940000A098A89A1E
S1130070D09AD19AD29AD39AD49AD59AD69AD79A10
S11300809899FECFD89A2FEF89E698E121508040C5
S11300909040E1F700C00000D99A2FEF89E698E17B
S11300A0215080409040E1F700C00000DA9A2FEF21
S11300B089E698E1215080409040E1F700C00000BB
S11300C0DB9A2FEF89E698E1215080409040E1F7D8
S11300D000C00000DC9A2FEF89E698E121508040AF
S11300E09040E1F700C00000DD9A2FEF89E698E127
S11300F0215080409040E1F700C00000DE9A2FEFCD
S113010089E698E1215080409040E1F700C000006A
S1130110DF9A2FEF89E698E1215080409040E1F783
S113012000C00000DF982FEF89E698E1215080405D
S11301309040E1F700C00000DE982FEF89E698E1D7
S1130140215080409040E1F700C00000DD982FEF7F
S113015089E698E1215080409040E1F700C000001A
S1130160DC982FEF89E698E1215080409040E1F738
S113017000C00000DB982FEF89E698E12150804011
S11301809040E1F700C00000DA982FEF89E698E18B
S1130190215080409040E1F700C00000D9982FEF33
S11301A089E698E1215080409040E1F700C00000CA
S10F01B0D898989BFECF64CFF894FFCF42
S9030000FC
