:100000000C942A000C943F000C943F000C943F0089
:100010000C943F000C943F000C943F000C943F0064
:100020000C943F000C943F000C943F000C943F0054
:100030000C943F000C943F000C943F000C943F0044
:100040000C943F000C943F000C943F000C943F0034
:100050000C943F0011241FBECFE5D8E0DEBFCDBF1A
:1000600010E0A0E6B0E0EAEEF2E002C005900D92EA
:10007000A837B107D9F70E94E1000C9473010C94E2
:10008000000081B3807F81BB81B3806F81BB8FEF24
:1000900082BB0895C39A83ED90E30197F1F700C006
:1000A0000000C39808958AB38F708ABBC29AC19822
:1000B0000E944A008AB3806F8ABBC2980895CF938A
:1000C000C82F0E945300CBBB88B3897F88BB89EFC0
:1000D00090E00197F1F700C000000E944A00CF9124
:1000E000089581E00E945F000895813039F4603105
:1000F00068F480E8860F0E945F000895823031F432
:10010000603120F480EC860F0E945F00089587E83C
:1001100093E10197F1F700C0000087B38E6087BBC1
:1001200088B3817F88BB8FEF8ABB85EA9EE0019709
:10013000F1F700C000000E94710088E30E945F0098
:1001400086E00E945F0080E80E945F008FE00E94CE
:100150005F000895CF93C82F0E945300CBBBC29875
:10016000C19A89EF90E00197F1F700C000000E946A
:100170004A00CF9108950F931F93CF93DF938C0183
:10018000C0E0D0E014C021960E94AA00C031D10581
:1001900021F480EC0E945F000AC0C032D10539F41E
:1001A0000E94710080E80E945F00C0E0D0E0F8018A
:1001B00081918F018111E7CFDF91CF911F910F9135
:1001C0000895CF93DF93CDB7DEB7C456D1090FB6EC
:1001D000F894DEBF0FBECDBF0E9487000E94410091
:1001E0000E9418012FEF80E792E02150804090405C
:1001F000E1F700C0000060E081E00E94750080E649
:1002000090E00E94BB0088E690E00E943501CE019C
:1002100001960E94520160E082E00E947500CE01CA
:1002200001960E94BB008EE690E00E94BB00EFCFDB
:10023000599883E389B980B58F7B80BD80B58F7E67
:1002400080BD80B58F7D80BD80B5877F80BD80B546
:10025000826080BD80B5846080BD5298539A549A64
:1002600008955D9BFECF8CB908950F931F93CF9394
:100270008C01FC018081882351F0C0E00E94310193
:10028000CF5FF801EC0FF11D8081C817B8F38DE046
:100290000E943101CF911F910F9108955F9BFECF76
:1002A0008CB10895EF92FF920F931F93CF937C012F
:1002B0000E944E01F70180838D3061F0C0E0CF5F76
:1002C00087010C0F111D0E944E01F80180838D30B3
:1002D000B1F701C08701F8011082CF911F910F91F2
:0A02E000FF90EF900895F894FFCF0F
:1002EA005541525420545200526561647900203CB1
:0802FA00446F6E653E20000018
:00000001FF
