:100000000C942A000C9434000C9434000C943400AA
:100010000C9434000C9434000C9434000C94340090
:100020000C9434000C9434000C9434000C94340080
:100030000C9434000C9434000C9434000C94340070
:100040000C9434000C9434000C9434000C94340060
:100050000C94340011241FBECFE5D8E0DEBFCDBF25
:100060000E9436000C9470000C9400008898909ABE
:100070008D9A8E9A8F9A85E061E070E011C0809B26
:10008000FECF809B0CC092B39B01082E02C0220FB2
:10009000331F0A94E2F7292B22BB8099FECF8F5F92
:1000A000883068F3959BFCCF81508530A8F0809B09
:1000B000FECF809B0EC022B3AB01082E02C0440FBE
:1000C000551F0A94E2F7942F9095922392BB809942
:1000D000FECF8150843059F78F5F9599E5CFE0CFFF
:0400E000F894FFCFC2
:00000001FF
